{
  "_format": "hh-sol-artifact-1",
  "contractName": "Calc",
  "sourceName": "contracts/Calc.sol",
  "abi": [
    {
      "anonymous": false,
      "inputs": [
        {
          "indexed": false,
          "internalType": "address",
          "name": "_from",
          "type": "address"
        },
        {
          "indexed": false,
          "internalType": "uint256",
          "name": "value",
          "type": "uint256"
        }
      ],
      "name": "NumberSet",
      "type": "event"
    },
    {
      "inputs": [],
      "name": "getNum",
      "outputs": [
        {
          "internalType": "uint256",
          "name": "",
          "type": "uint256"
        }
      ],
      "stateMutability": "view",
      "type": "function"
    },
    {
      "inputs": [
        {
          "internalType": "uint256",
          "name": "_num",
          "type": "uint256"
        }
      ],
      "name": "setNum",
      "outputs": [],
      "stateMutability": "nonpayable",
      "type": "function"
    }
  ],
  "bytecode": "0x60806040526000805534801561001457600080fd5b5060eb806100236000396000f3fe6080604052348015600f57600080fd5b506004361060325760003560e01c806367e0badb146037578063cd16ecbf14604c575b600080fd5b60005460405190815260200160405180910390f35b605b6057366004609e565b605d565b005b600081905560408051338152602081018390527fdf1b3bea69f5a320d08715bed3eaa0ac393a2ecb2b5dca3f8c3c5f8ec8f575e4910160405180910390a150565b60006020828403121560ae578081fd5b503591905056fea264697066735822122021c020c8614d2000cc551a63799a8aed89365133b979c636e53c0783a4337ea164736f6c63430008020033",
  "linkReferences": {},
  "deployedLinkReferences": {}
}