{
  "_format": "hh-sol-artifact-1",
  "contractName": "SwaggNFT",
  "sourceName": "contracts/SwaggNFT.sol",
  "abi": [
    {
      "inputs": [],
      "stateMutability": "nonpayable",
      "type": "constructor"
    },
    {
      "anonymous": false,
      "inputs": [
        {
          "indexed": true,
          "internalType": "address",
          "name": "owner",
          "type": "address"
        },
        {
          "indexed": true,
          "internalType": "address",
          "name": "approved",
          "type": "address"
        },
        {
          "indexed": true,
          "internalType": "uint256",
          "name": "tokenId",
          "type": "uint256"
        }
      ],
      "name": "Approval",
      "type": "event"
    },
    {
      "anonymous": false,
      "inputs": [
        {
          "indexed": true,
          "internalType": "address",
          "name": "owner",
          "type": "address"
        },
        {
          "indexed": true,
          "internalType": "address",
          "name": "operator",
          "type": "address"
        },
        {
          "indexed": false,
          "internalType": "bool",
          "name": "approved",
          "type": "bool"
        }
      ],
      "name": "ApprovalForAll",
      "type": "event"
    },
    {
      "anonymous": false,
      "inputs": [
        {
          "indexed": true,
          "internalType": "address",
          "name": "previousOwner",
          "type": "address"
        },
        {
          "indexed": true,
          "internalType": "address",
          "name": "newOwner",
          "type": "address"
        }
      ],
      "name": "OwnershipTransferred",
      "type": "event"
    },
    {
      "anonymous": false,
      "inputs": [
        {
          "indexed": true,
          "internalType": "address",
          "name": "from",
          "type": "address"
        },
        {
          "indexed": true,
          "internalType": "address",
          "name": "to",
          "type": "address"
        },
        {
          "indexed": true,
          "internalType": "uint256",
          "name": "tokenId",
          "type": "uint256"
        }
      ],
      "name": "Transfer",
      "type": "event"
    },
    {
      "inputs": [
        {
          "internalType": "address",
          "name": "to",
          "type": "address"
        },
        {
          "internalType": "uint256",
          "name": "tokenId",
          "type": "uint256"
        }
      ],
      "name": "approve",
      "outputs": [],
      "stateMutability": "nonpayable",
      "type": "function"
    },
    {
      "inputs": [
        {
          "internalType": "address",
          "name": "owner",
          "type": "address"
        }
      ],
      "name": "balanceOf",
      "outputs": [
        {
          "internalType": "uint256",
          "name": "",
          "type": "uint256"
        }
      ],
      "stateMutability": "view",
      "type": "function"
    },
    {
      "inputs": [],
      "name": "count",
      "outputs": [
        {
          "internalType": "uint256",
          "name": "",
          "type": "uint256"
        }
      ],
      "stateMutability": "view",
      "type": "function"
    },
    {
      "inputs": [
        {
          "internalType": "uint256",
          "name": "tokenId",
          "type": "uint256"
        }
      ],
      "name": "getApproved",
      "outputs": [
        {
          "internalType": "address",
          "name": "",
          "type": "address"
        }
      ],
      "stateMutability": "view",
      "type": "function"
    },
    {
      "inputs": [
        {
          "internalType": "address",
          "name": "owner",
          "type": "address"
        },
        {
          "internalType": "address",
          "name": "operator",
          "type": "address"
        }
      ],
      "name": "isApprovedForAll",
      "outputs": [
        {
          "internalType": "bool",
          "name": "",
          "type": "bool"
        }
      ],
      "stateMutability": "view",
      "type": "function"
    },
    {
      "inputs": [
        {
          "internalType": "string",
          "name": "uri",
          "type": "string"
        }
      ],
      "name": "isContentOwned",
      "outputs": [
        {
          "internalType": "bool",
          "name": "",
          "type": "bool"
        }
      ],
      "stateMutability": "view",
      "type": "function"
    },
    {
      "inputs": [],
      "name": "name",
      "outputs": [
        {
          "internalType": "string",
          "name": "",
          "type": "string"
        }
      ],
      "stateMutability": "view",
      "type": "function"
    },
    {
      "inputs": [],
      "name": "owner",
      "outputs": [
        {
          "internalType": "address",
          "name": "",
          "type": "address"
        }
      ],
      "stateMutability": "view",
      "type": "function"
    },
    {
      "inputs": [
        {
          "internalType": "uint256",
          "name": "tokenId",
          "type": "uint256"
        }
      ],
      "name": "ownerOf",
      "outputs": [
        {
          "internalType": "address",
          "name": "",
          "type": "address"
        }
      ],
      "stateMutability": "view",
      "type": "function"
    },
    {
      "inputs": [
        {
          "internalType": "address",
          "name": "recipient",
          "type": "address"
        },
        {
          "internalType": "string",
          "name": "metadataURI",
          "type": "string"
        }
      ],
      "name": "payToMint",
      "outputs": [
        {
          "internalType": "uint256",
          "name": "",
          "type": "uint256"
        }
      ],
      "stateMutability": "payable",
      "type": "function"
    },
    {
      "inputs": [],
      "name": "renounceOwnership",
      "outputs": [],
      "stateMutability": "nonpayable",
      "type": "function"
    },
    {
      "inputs": [
        {
          "internalType": "address",
          "name": "to",
          "type": "address"
        },
        {
          "internalType": "string",
          "name": "uri",
          "type": "string"
        }
      ],
      "name": "safeMint",
      "outputs": [],
      "stateMutability": "nonpayable",
      "type": "function"
    },
    {
      "inputs": [
        {
          "internalType": "address",
          "name": "from",
          "type": "address"
        },
        {
          "internalType": "address",
          "name": "to",
          "type": "address"
        },
        {
          "internalType": "uint256",
          "name": "tokenId",
          "type": "uint256"
        }
      ],
      "name": "safeTransferFrom",
      "outputs": [],
      "stateMutability": "nonpayable",
      "type": "function"
    },
    {
      "inputs": [
        {
          "internalType": "address",
          "name": "from",
          "type": "address"
        },
        {
          "internalType": "address",
          "name": "to",
          "type": "address"
        },
        {
          "internalType": "uint256",
          "name": "tokenId",
          "type": "uint256"
        },
        {
          "internalType": "bytes",
          "name": "data",
          "type": "bytes"
        }
      ],
      "name": "safeTransferFrom",
      "outputs": [],
      "stateMutability": "nonpayable",
      "type": "function"
    },
    {
      "inputs": [
        {
          "internalType": "address",
          "name": "operator",
          "type": "address"
        },
        {
          "internalType": "bool",
          "name": "approved",
          "type": "bool"
        }
      ],
      "name": "setApprovalForAll",
      "outputs": [],
      "stateMutability": "nonpayable",
      "type": "function"
    },
    {
      "inputs": [
        {
          "internalType": "bytes4",
          "name": "interfaceId",
          "type": "bytes4"
        }
      ],
      "name": "supportsInterface",
      "outputs": [
        {
          "internalType": "bool",
          "name": "",
          "type": "bool"
        }
      ],
      "stateMutability": "view",
      "type": "function"
    },
    {
      "inputs": [],
      "name": "symbol",
      "outputs": [
        {
          "internalType": "string",
          "name": "",
          "type": "string"
        }
      ],
      "stateMutability": "view",
      "type": "function"
    },
    {
      "inputs": [
        {
          "internalType": "uint256",
          "name": "tokenId",
          "type": "uint256"
        }
      ],
      "name": "tokenURI",
      "outputs": [
        {
          "internalType": "string",
          "name": "",
          "type": "string"
        }
      ],
      "stateMutability": "view",
      "type": "function"
    },
    {
      "inputs": [
        {
          "internalType": "address",
          "name": "from",
          "type": "address"
        },
        {
          "internalType": "address",
          "name": "to",
          "type": "address"
        },
        {
          "internalType": "uint256",
          "name": "tokenId",
          "type": "uint256"
        }
      ],
      "name": "transferFrom",
      "outputs": [],
      "stateMutability": "nonpayable",
      "type": "function"
    },
    {
      "inputs": [
        {
          "internalType": "address",
          "name": "newOwner",
          "type": "address"
        }
      ],
      "name": "transferOwnership",
      "outputs": [],
      "stateMutability": "nonpayable",
      "type": "function"
    }
  ],
  "bytecode": "0x60806040523480156200001157600080fd5b50604080518082018252600881526714ddd859d9d3919560c21b6020808301918252835180850190945260048452635357414760e01b9084015281519192916200005e91600091620000ed565b50805162000074906001906020840190620000ed565b505050620000916200008b6200009760201b60201c565b6200009b565b620001d0565b3390565b600780546001600160a01b038381166001600160a01b0319831681179093556040519116919082907f8be0079c531659141344cd1fd0a4f28419497f9722a3daafe3b4186f6b6457e090600090a35050565b828054620000fb9062000193565b90600052602060002090601f0160209004810192826200011f57600085556200016a565b82601f106200013a57805160ff19168380011785556200016a565b828001600101855582156200016a579182015b828111156200016a5782518255916020019190600101906200014d565b50620001789291506200017c565b5090565b5b808211156200017857600081556001016200017d565b600281046001821680620001a857607f821691505b60208210811415620001ca57634e487b7160e01b600052602260045260246000fd5b50919050565b611abb80620001e06000396000f3fe60806040526004361061011f5760003560e01c8063715018a6116100a0578063b88d4fde11610064578063b88d4fde14610313578063c87b56dd14610333578063d204c45e14610353578063e985e9c514610373578063f2fde38b146103bc5761011f565b8063715018a61461028b5780638da5cb5b146102a057806395d89b41146102be5780639f1cabc6146102d3578063a22cb465146102f35761011f565b806323b872dd116100e757806323b872dd146101f857806342842e0e14610218578063615fd9e2146102385780636352211e1461024b57806370a082311461026b5761011f565b806301ffc9a71461012457806306661abd1461015957806306fdde031461017c578063081812fc1461019e578063095ea7b3146101d6575b600080fd5b34801561013057600080fd5b5061014461013f36600461176a565b6103dc565b60405190151581526020015b60405180910390f35b34801561016557600080fd5b5061016e610430565b604051908152602001610150565b34801561018857600080fd5b50610191610440565b60405161015091906118a1565b3480156101aa57600080fd5b506101be6101b93660046117d5565b6104d2565b6040516001600160a01b039091168152602001610150565b3480156101e257600080fd5b506101f66101f1366004611741565b6104f9565b005b34801561020457600080fd5b506101f6610213366004611607565b610614565b34801561022457600080fd5b506101f6610233366004611607565b610645565b61016e6102463660046116f5565b610660565b34801561025757600080fd5b506101be6102663660046117d5565b61077f565b34801561027757600080fd5b5061016e6102863660046115bb565b6107df565b34801561029757600080fd5b506101f6610865565b3480156102ac57600080fd5b506007546001600160a01b03166101be565b3480156102ca57600080fd5b50610191610879565b3480156102df57600080fd5b506101446102ee3660046117a2565b610888565b3480156102ff57600080fd5b506101f661030e3660046116bb565b6108b7565b34801561031f57600080fd5b506101f661032e366004611642565b6108c6565b34801561033f57600080fd5b5061019161034e3660046117d5565b6108fe565b34801561035f57600080fd5b506101f661036e3660046116f5565b610909565b34801561037f57600080fd5b5061014461038e3660046115d5565b6001600160a01b03918216600090815260056020908152604080832093909416825291909152205460ff1690565b3480156103c857600080fd5b506101f66103d73660046115bb565b61097a565b60006001600160e01b031982166380ac58cd60e01b148061040d57506001600160e01b03198216635b5e139f60e01b145b8061042857506301ffc9a760e01b6001600160e01b03198316145b90505b919050565b600061043b60085490565b905090565b60606000805461044f906119c3565b80601f016020809104026020016040519081016040528092919081815260200182805461047b906119c3565b80156104c85780601f1061049d576101008083540402835291602001916104c8565b820191906000526020600020905b8154815290600101906020018083116104ab57829003601f168201915b5050505050905090565b60006104dd826109f3565b506000908152600460205260409020546001600160a01b031690565b60006105048261077f565b9050806001600160a01b0316836001600160a01b031614156105775760405162461bcd60e51b815260206004820152602160248201527f4552433732313a20617070726f76616c20746f2063757272656e74206f776e656044820152603960f91b60648201526084015b60405180910390fd5b336001600160a01b03821614806105935750610593813361038e565b6106055760405162461bcd60e51b815260206004820152603e60248201527f4552433732313a20617070726f76652063616c6c6572206973206e6f7420746f60448201527f6b656e206f776e6572206e6f7220617070726f76656420666f7220616c6c0000606482015260840161056e565b61060f8383610a52565b505050565b61061e3382610ac0565b61063a5760405162461bcd60e51b815260040161056e90611906565b61060f838383610b3f565b61060f838383604051806020016040528060008152506108c6565b60006009826040516106729190611819565b9081526040519081900360200190205460ff16600114156106cb5760405162461bcd60e51b81526020600482015260136024820152724e465420616c7265616479206d696e7465642160681b604482015260640161056e565b66b1a2bc2ec500003410156107145760405162461bcd60e51b815260206004820152600f60248201526e4e65656420746f207061792075702160881b604482015260640161056e565b600061071f60085490565b905061072f600880546001019055565b60016009846040516107419190611819565b908152604051908190036020019020805460ff9290921660ff1990921691909117905561076e8482610cdb565b6107788184610e1e565b9392505050565b6000818152600260205260408120546001600160a01b0316806104285760405162461bcd60e51b8152602060048201526018602482015277115490cdcc8c4e881a5b9d985b1a59081d1bdad95b88125160421b604482015260640161056e565b60006001600160a01b0382166108495760405162461bcd60e51b815260206004820152602960248201527f4552433732313a2061646472657373207a65726f206973206e6f7420612076616044820152683634b21037bbb732b960b91b606482015260840161056e565b506001600160a01b031660009081526003602052604090205490565b61086d610eb8565b6108776000610f12565b565b60606001805461044f906119c3565b600060098260405161089a9190611819565b9081526040519081900360200190205460ff166001149050919050565b6108c2338383610f64565b5050565b6108d03383610ac0565b6108ec5760405162461bcd60e51b815260040161056e90611906565b6108f884848484611033565b50505050565b606061042882611066565b610911610eb8565b600061091c60085490565b905061092c600880546001019055565b610936838261117f565b6109408183610e1e565b60016009836040516109529190611819565b908152604051908190036020019020805460ff9290921660ff19909216919091179055505050565b610982610eb8565b6001600160a01b0381166109e75760405162461bcd60e51b815260206004820152602660248201527f4f776e61626c653a206e6577206f776e657220697320746865207a65726f206160448201526564647265737360d01b606482015260840161056e565b6109f081610f12565b50565b6000818152600260205260409020546001600160a01b03166109f05760405162461bcd60e51b8152602060048201526018602482015277115490cdcc8c4e881a5b9d985b1a59081d1bdad95b88125160421b604482015260640161056e565b600081815260046020526040902080546001600160a01b0319166001600160a01b0384169081179091558190610a878261077f565b6001600160a01b03167f8c5be1e5ebec7d5bd14f71427d1e84f3dd0314c0f7b2291e5b200ac8c7c3b92560405160405180910390a45050565b600080610acc8361077f565b9050806001600160a01b0316846001600160a01b03161480610b1357506001600160a01b0380821660009081526005602090815260408083209388168352929052205460ff165b80610b375750836001600160a01b0316610b2c846104d2565b6001600160a01b0316145b949350505050565b826001600160a01b0316610b528261077f565b6001600160a01b031614610bb65760405162461bcd60e51b815260206004820152602560248201527f4552433732313a207472616e736665722066726f6d20696e636f72726563742060448201526437bbb732b960d91b606482015260840161056e565b6001600160a01b038216610c185760405162461bcd60e51b8152602060048201526024808201527f4552433732313a207472616e7366657220746f20746865207a65726f206164646044820152637265737360e01b606482015260840161056e565b610c23600082610a52565b6001600160a01b0383166000908152600360205260408120805460019290610c4c908490611980565b90915550506001600160a01b0382166000908152600360205260408120805460019290610c7a908490611954565b909155505060008181526002602052604080822080546001600160a01b0319166001600160a01b0386811691821790925591518493918716917fddf252ad1be2c89b69c2b068fc378daa952ba7f163c4a11628f55a4df523b3ef91a461060f565b6001600160a01b038216610d315760405162461bcd60e51b815260206004820181905260248201527f4552433732313a206d696e7420746f20746865207a65726f2061646472657373604482015260640161056e565b6000818152600260205260409020546001600160a01b031615610d965760405162461bcd60e51b815260206004820152601c60248201527f4552433732313a20746f6b656e20616c7265616479206d696e74656400000000604482015260640161056e565b6001600160a01b0382166000908152600360205260408120805460019290610dbf908490611954565b909155505060008181526002602052604080822080546001600160a01b0319166001600160a01b03861690811790915590518392907fddf252ad1be2c89b69c2b068fc378daa952ba7f163c4a11628f55a4df523b3ef908290a46108c2565b6000828152600260205260409020546001600160a01b0316610e995760405162461bcd60e51b815260206004820152602e60248201527f45524337323155524953746f726167653a2055524920736574206f66206e6f6e60448201526d32bc34b9ba32b73a103a37b5b2b760911b606482015260840161056e565b6000828152600660209081526040909120825161060f92840190611476565b6007546001600160a01b031633146108775760405162461bcd60e51b815260206004820181905260248201527f4f776e61626c653a2063616c6c6572206973206e6f7420746865206f776e6572604482015260640161056e565b600780546001600160a01b038381166001600160a01b0319831681179093556040519116919082907f8be0079c531659141344cd1fd0a4f28419497f9722a3daafe3b4186f6b6457e090600090a35050565b816001600160a01b0316836001600160a01b03161415610fc65760405162461bcd60e51b815260206004820152601960248201527f4552433732313a20617070726f766520746f2063616c6c657200000000000000604482015260640161056e565b6001600160a01b03838116600081815260056020908152604080832094871680845294825291829020805460ff191686151590811790915591519182527f17307eab39ab6107e8899845ad3d59bd9653f200f220920489ca2b5937696c31910160405180910390a3505050565b61103e848484610b3f565b61104a84848484611199565b6108f85760405162461bcd60e51b815260040161056e906118b4565b6060611071826109f3565b6000828152600660205260408120805461108a906119c3565b80601f01602080910402602001604051908101604052809291908181526020018280546110b6906119c3565b80156111035780601f106110d857610100808354040283529160200191611103565b820191906000526020600020905b8154815290600101906020018083116110e657829003601f168201915b505050505090506000611130604080518082019091526007815266697066733a2f2f60c81b602082015290565b90508051600014156111445750905061042b565b81511561117657808260405160200161115e929190611835565b6040516020818303038152906040529250505061042b565b610b37846112a6565b6108c2828260405180602001604052806000815250611328565b60006001600160a01b0384163b1561129b57604051630a85bd0160e11b81526001600160a01b0385169063150b7a02906111dd903390899088908890600401611864565b602060405180830381600087803b1580156111f757600080fd5b505af1925050508015611227575060408051601f3d908101601f1916820190925261122491810190611786565b60015b611281573d808015611255576040519150601f19603f3d011682016040523d82523d6000602084013e61125a565b606091505b5080516112795760405162461bcd60e51b815260040161056e906118b4565b805181602001fd5b6001600160e01b031916630a85bd0160e11b149050610b37565b506001949350505050565b60606112b1826109f3565b60006112d7604080518082019091526007815266697066733a2f2f60c81b602082015290565b905060008151116112f75760405180602001604052806000815250610778565b806113018461135b565b604051602001611312929190611835565b6040516020818303038152906040529392505050565b6113328383610cdb565b61133f6000848484611199565b61060f5760405162461bcd60e51b815260040161056e906118b4565b60608161138057506040805180820190915260018152600360fc1b602082015261042b565b8160005b81156113aa5780611394816119fe565b91506113a39050600a8361196c565b9150611384565b60008167ffffffffffffffff8111156113d357634e487b7160e01b600052604160045260246000fd5b6040519080825280601f01601f1916602001820160405280156113fd576020820181803683370190505b5090505b8415610b3757611412600183611980565b915061141f600a86611a19565b61142a906030611954565b60f81b81838151811061144d57634e487b7160e01b600052603260045260246000fd5b60200101906001600160f81b031916908160001a90535061146f600a8661196c565b9450611401565b828054611482906119c3565b90600052602060002090601f0160209004810192826114a457600085556114ea565b82601f106114bd57805160ff19168380011785556114ea565b828001600101855582156114ea579182015b828111156114ea5782518255916020019190600101906114cf565b506114f69291506114fa565b5090565b5b808211156114f657600081556001016114fb565b600067ffffffffffffffff8084111561152a5761152a611a59565b604051601f8501601f19908116603f0116810190828211818310171561155257611552611a59565b8160405280935085815286868601111561156b57600080fd5b858560208301376000602087830101525050509392505050565b80356001600160a01b038116811461042b57600080fd5b600082601f8301126115ac578081fd5b6107788383356020850161150f565b6000602082840312156115cc578081fd5b61077882611585565b600080604083850312156115e7578081fd5b6115f083611585565b91506115fe60208401611585565b90509250929050565b60008060006060848603121561161b578081fd5b61162484611585565b925061163260208501611585565b9150604084013590509250925092565b60008060008060808587031215611657578081fd5b61166085611585565b935061166e60208601611585565b925060408501359150606085013567ffffffffffffffff811115611690578182fd5b8501601f810187136116a0578182fd5b6116af8782356020840161150f565b91505092959194509250565b600080604083850312156116cd578182fd5b6116d683611585565b9150602083013580151581146116ea578182fd5b809150509250929050565b60008060408385031215611707578182fd5b61171083611585565b9150602083013567ffffffffffffffff81111561172b578182fd5b6117378582860161159c565b9150509250929050565b60008060408385031215611753578182fd5b61175c83611585565b946020939093013593505050565b60006020828403121561177b578081fd5b813561077881611a6f565b600060208284031215611797578081fd5b815161077881611a6f565b6000602082840312156117b3578081fd5b813567ffffffffffffffff8111156117c9578182fd5b610b378482850161159c565b6000602082840312156117e6578081fd5b5035919050565b60008151808452611805816020860160208601611997565b601f01601f19169290920160200192915050565b6000825161182b818460208701611997565b9190910192915050565b60008351611847818460208801611997565b83519083019061185b818360208801611997565b01949350505050565b6001600160a01b0385811682528416602082015260408101839052608060608201819052600090611897908301846117ed565b9695505050505050565b60006020825261077860208301846117ed565b60208082526032908201527f4552433732313a207472616e7366657220746f206e6f6e20455243373231526560408201527131b2b4bb32b91034b6b83632b6b2b73a32b960711b606082015260800190565b6020808252602e908201527f4552433732313a2063616c6c6572206973206e6f7420746f6b656e206f776e6560408201526d1c881b9bdc88185c1c1c9bdd995960921b606082015260800190565b6000821982111561196757611967611a2d565b500190565b60008261197b5761197b611a43565b500490565b60008282101561199257611992611a2d565b500390565b60005b838110156119b257818101518382015260200161199a565b838111156108f85750506000910152565b6002810460018216806119d757607f821691505b602082108114156119f857634e487b7160e01b600052602260045260246000fd5b50919050565b6000600019821415611a1257611a12611a2d565b5060010190565b600082611a2857611a28611a43565b500690565b634e487b7160e01b600052601160045260246000fd5b634e487b7160e01b600052601260045260246000fd5b634e487b7160e01b600052604160045260246000fd5b6001600160e01b0319811681146109f057600080fdfea26469706673582212206b9ff1ffd31737c30e3311ad868c5ed779aa59f05ba5e1b3a83b3f03ef4f61e364736f6c63430008020033",
  "linkReferences": {},
  "deployedLinkReferences": {}
}